:100000000C942A000C9447000C9447000C94470071
:100010000C9447000C9447000C9447000C94470044
:100020000C9447000C9447000C9447000C94470034
:100030000C94BA030C9447000C9447000C944700AE
:100040000C9447000C9447000C9447000C94470014
:100050000C94470011241FBECFE5D4E0DEBFCDBF16
:1000600010E0A0E6B0E0E2EDF7E002C005900D92EE
:10007000AA37B107D9F710E0AAE7B0E001C01D9296
:10008000AD37B107E1F70E94CE020C94E7030C9460
:100090000000DF93CF93CDB7DEB7E0916900F09118
:1000A0006A0081E08083E0916B00F0916C0080EB4E
:1000B0008083E0916D00F0916E001082E0916F00FE
:1000C000F09170001082A0916100B0916200E09107
:1000D0006100F091620080818E7F8C93A09163001B
:1000E000B0916400E0916300F091640080818F74AE
:1000F0008C93A0916500B0916600E0916500F0914D
:10010000660080818C93A0916700B0916800E091B7
:100110006700F091680080818C93CF91DF91089502
:10012000DF93CF9300D000D0CDB7DEB78A837C8336
:100130006B838A81843010F0198211C08A81882FE4
:1001400090E0880F991FFC01E759FF4F0190F08163
:10015000E02D8081EB81FC81808381E0898389812E
:100160000F900F900F900F90CF91DF910895DF9334
:10017000CF9300D000D00F92CDB7DEB78B837D83B5
:100180006C838B81803210F01A8225C08B8186951A
:1001900086958695882F90E0880F991FFC01E75976
:1001A000FF4F0190F081E02D808189838981282F84
:1001B00030E08B81882F90E087709070A90102C099
:1001C000559547958A95E2F7CA018170EC81FD81CA
:1001D000808381E08A838A810F900F900F900F9027
:1001E0000F90CF91DF910895DF93CF9300D00F92BE
:1001F000CDB7DEB78A836B8381E089838A818430BF
:1002000010F019820DC08A81882F90E0880F991F05
:10021000FC01E759FF4F0190F081E02D8B81808335
:1002200089810F900F900F90CF91DF910895DF9308
:10023000CF9300D000D00F92CDB7DEB78A836B8307
:100240008A81803210F0198271C08B81282F30E0B2
:100250003D832C838C819D810097B1F12C813D8160
:100260002130310509F061C08A8186958695869591
:10027000882F90E0880F991FFC01E759FF4FA0815C
:10028000B1818A81869586958695882F90E0880F22
:10029000991FFC01E759FF4F0190F081E02D80810B
:1002A000482F8A81882F90E09C012770307081E070
:1002B00090E0022E02C0880F991F0A94E2F7842B67
:1002C0008C9381E0898332C08A8186958695869554
:1002D000882F90E0880F991FFC01E759FF4FA081FC
:1002E000B1818A81869586958695882F90E0880FC2
:1002F000991FFC01E759FF4F0190F081E02D8081AB
:10030000482F8A81882F90E09C012770307081E00F
:1003100090E0022E02C0880F991F0A94E2F78095A0
:1003200084238C9381E0898301C0198289810F9095
:100330000F900F900F900F90CF91DF910895DF9362
:10034000CF9300D00F92CDB7DEB78A836B838A81BB
:10035000843010F019820FC08A81882F90E0880FB6
:10036000991FFC01EF59FF4F0190F081E02D8B8127
:10037000808381E0898389810F900F900F90CF91C6
:10038000DF910895DF93CF9300D000D0CDB7DEB7D3
:100390008A837C836B838A81843010F0198211C038
:1003A0008A81882F90E0880F991FFC01EF59FF4F39
:1003B0000190F081E02D8081EB81FC81808381E0E0
:1003C000898389810F900F900F900F90CF91DF91CB
:1003D0000895DF93CF9300D000D00F92CDB7DEB752
:1003E0008A836B838A81803210F0198271C08B817D
:1003F000282F30E03D832C838C819D810097B1F1C3
:100400002C813D812130310509F061C08A818695BA
:1004100086958695882F90E0880F991FFC01EF59EB
:10042000FF4FA081B1818A81869586958695882F18
:1004300090E0880F991FFC01EF59FF4F0190F08168
:10044000E02D8081482F8A81882F90E09C012770C1
:10045000307081E090E0022E02C0880F991F0A944C
:10046000E2F7842B8C9381E0898332C08A81869560
:1004700086958695882F90E0880F991FFC01EF598B
:10048000FF4FA081B1818A81869586958695882FB8
:1004900090E0880F991FFC01EF59FF4F0190F08108
:1004A000E02D8081482F8A81882F90E09C01277061
:1004B000307081E090E0022E02C0880F991F0A94EC
:1004C000E2F7809584238C9381E0898301C01982AF
:1004D00089810F900F900F900F900F90CF91DF9127
:1004E0000895DF93CF9300D000D0CDB7DEB78A83D5
:1004F0007C836B838A81803210F0198223C08A81C9
:10050000869586958695882F90E0880F991FFC0127
:10051000EF58FF4F0190F081E02D8081282F30E0CF
:100520008A81882F90E087709070A90102C055954C
:1005300047958A95E2F7CA018170EB81FC8180833F
:1005400081E0898389810F900F900F900F90CF9158
:10055000DF910895DF93CF930F92CDB7DEB78091EF
:100560007A008A3091F49091600080E0692F0E94B7
:10057000E901809160001982882311F481E0898368
:1005800089818093600010927A0080917A008F5F59
:1005900080937A000F90CF91DF910895DF93CF93EE
:1005A0000F92CDB7DEB719820E9449000E94F70270
:1005B0008AEA92E00E94A8038CE060E00E94E901D0
:1005C000198206C08FEF0E946B0389818F5F898338
:1005D00089818830B8F3198206C080E00E946B03DD
:1005E00089818F5F898389818830B8F3E9CFDF9370
:1005F000CF93CDB7DEB77894ADE2B0E0EDE2F0E0B6
:10060000808180688C93ADE2B0E0EDE2F0E0808123
:1006100080628C93ADE2B0E0EDE2F0E08081806139
:100620008C93ADE2B0E0EDE2F0E0808188608C93E5
:10063000ADE2B0E0EDE2F0E0808184608C93ADE269
:10064000B0E0EDE2F0E0808183608C93AEE2B0E058
:10065000EEE2F0E080818E7F8C93ADE2B0E0EDE2DF
:10066000F0E0808180648C93CF91DF910895DF93D7
:10067000CF9300D000D0CDB7DEB78A8319828A81AC
:10068000282F30E03C832B838B819C81009731F0B5
:100690002B813C812130310559F014C0ADE2B0E02E
:1006A000EDE2F0E080818F7E8C9381E089830BC046
:1006B000ADE2B0E0EDE2F0E0808180618C9381E01A
:1006C000898301C0198289810F900F900F900F903C
:1006D000CF91DF910895DF93CF930F92CDB7DEB71F
:1006E0008983EFE2F0E089818083EEE2F0E08081AF
:1006F0008823DCF70F90CF91DF910895DF93CF939C
:1007000000D0CDB7DEB79A838983EEE2F0E0808136
:100710008823DCF7EFE2F0E08081E981FA818083D1
:100720000F900F90CF91DF910895DF93CF930F92A9
:10073000CDB7DEB7EEE2F0E08081829586958695B2
:1007400083708170898389810F90CF91DF910895A3
:10075000DF93CF9300D0CDB7DEB79A8389838981A9
:100760009A8190937C0080937B000F900F90CF91A3
:10077000DF9108951F920F920FB60F9211242F93BD
:100780003F934F935F936F937F938F939F93AF9319
:10079000BF93EF93FF93DF93CF93CDB7DEB7E09195
:1007A0007B00F0917C000995CF91DF91FF91EF9153
:1007B000BF91AF919F918F917F916F915F914F9179
:1007C0003F912F910F900FBE0F901F901895F894A6
:0207D000FFCF59
:1007D200013B003800350032003A00370034003166
:0A07E200003900360033003000003B
:00000001FF
