:100000000C942A000C949F030C94CC030C94F903D9
:100010000C9447000C9447000C9447000C94470044
:100020000C9447000C9447000C9447000C94470034
:100030000C9447000C9447000C9447000C94470024
:100040000C9447000C9447000C9447000C94470014
:100050000C94470011241FBECFE5D8E0DEBFCDBF12
:1000600010E0A0E6B0E0EAE7FEE002C005900D92E5
:10007000A639B107D9F711E0A6E9B0E001C01D9299
:10008000A232B107E1F70E94D0060C943B070C9412
:100090000000DF93CF93CDB7DEB7E0917E00F09103
:1000A0007F001082E0918000F09181001082E09149
:1000B0008200F09183001082E0918400F09185002D
:1000C0001082A0917600B0917700E0917600F091D7
:1000D000770080818C93A0917800B0917900E091B5
:1000E0007800F091790080818C93A0917A00B09192
:1000F0007B00E0917A00F0917B0080818C93A0914D
:100100007C00B0917D00E0917C00F0917D008081C9
:100110008C93CF91DF910895DF93CF9300D000D0DF
:10012000CDB7DEB78A837C836B838A81843010F0FD
:10013000198211C08A81882F90E0880F991FFC01D5
:10014000E258FF4F0190F081E02D8081EB81FC812E
:10015000808381E0898389810F900F900F900F90A9
:10016000CF91DF910895DF93CF9300D000D00F920D
:10017000CDB7DEB78B837D836C838B81803210F0AB
:100180001A8225C08B81869586958695882F90E06A
:10019000880F991FFC01E258FF4F0190F081E02D7C
:1001A000808189838981282F30E08B81882F90E09E
:1001B00087709070A90102C0559547958A95E2F71E
:1001C000CA018170EC81FD81808381E08A838A810C
:1001D0000F900F900F900F900F90CF91DF91089597
:1001E000DF93CF9300D00F92CDB7DEB78A836B83B6
:1001F00081E089838A81843010F019820DC08A8160
:10020000882F90E0880F991FFC01E258FF4F019062
:10021000F081E02D8B81808389810F900F900F906A
:10022000CF91DF910895DF93CF9300D000D00F924C
:10023000CDB7DEB78A836B838A81803210F0198252
:1002400071C08B81282F30E03D832C838C819D8170
:100250000097B1F12C813D812130310509F061C059
:100260008A81869586958695882F90E0880F991FBC
:10027000FC01E258FF4FA081B1818A818695869565
:100280008695882F90E0880F991FFC01E258FF4F58
:100290000190F081E02D8081482F8A81882F90E0A5
:1002A0009C012770307081E090E0022E02C0880F20
:1002B000991F0A94E2F7842B8C9381E0898332C0E2
:1002C0008A81869586958695882F90E0880F991F5C
:1002D000FC01E258FF4FA081B1818A818695869505
:1002E0008695882F90E0880F991FFC01E258FF4FF8
:1002F0000190F081E02D8081482F8A81882F90E045
:100300009C012770307081E090E0022E02C0880FBF
:10031000991F0A94E2F7809584238C9381E0898366
:1003200001C0198289810F900F900F900F900F904C
:10033000CF91DF910895DF93CF9300D00F92CDB787
:10034000DEB78A836B838A81843010F019820FC0F4
:100350008A81882F90E0880F991FFC01EA58FF4F8F
:100360000190F081E02D8B81808381E089838981F8
:100370000F900F900F90CF91DF910895DF93CF935F
:1003800000D000D0CDB7DEB78A837C836B838A81AF
:10039000843010F0198211C08A81882F90E0880F74
:1003A000991FFC01EA58FF4F0190F081E02D8081F8
:1003B000EB81FC81808381E0898389810F900F909C
:1003C0000F900F90CF91DF910895DF93CF9300D0DE
:1003D00000D00F92CDB7DEB78A836B838A818032DB
:1003E00010F0198271C08B81282F30E03D832C835F
:1003F0008C819D810097B1F12C813D8121303105A7
:1004000009F061C08A81869586958695882F90E04F
:10041000880F991FFC01EA58FF4FA081B1818A81A2
:10042000869586958695882F90E0880F991FFC0108
:10043000EA58FF4F0190F081E02D8081482F8A819A
:10044000882F90E09C012770307081E090E0022EB0
:1004500002C0880F991F0A94E2F7842B8C9381E0E5
:10046000898332C08A81869586958695882F90E00B
:10047000880F991FFC01EA58FF4FA081B1818A8142
:10048000869586958695882F90E0880F991FFC01A8
:10049000EA58FF4F0190F081E02D8081482F8A813A
:1004A000882F90E09C012770307081E090E0022E50
:1004B00002C0880F991F0A94E2F7809584238C93D9
:1004C00081E0898301C0198289810F900F900F907C
:1004D0000F900F90CF91DF910895DF93CF9300D0CD
:1004E00000D0CDB7DEB78A837C836B838A8180326C
:1004F00010F0198223C08A81869586958695882F6B
:1005000090E0880F991FFC01EA57FF4F0190F0819E
:10051000E02D8081282F30E08A81882F90E087703D
:100520009070A90102C0559547958A95E2F7CA01D6
:100530008170EB81FC81808381E0898389810F90C8
:100540000F900F900F90CF91DF910895DF93CF938D
:1005500000D0CDB7DEB79A83898389819A81909341
:100560009700809396000F900F90CF91DF910895A0
:10057000DF93CF9300D0CDB7DEB79A83898389818B
:100580009A8190939900809398000F900F90CF914B
:10059000DF910895DF93CF9300D0CDB7DEB79A8374
:1005A000898389819A8190939B0080939A000F9010
:1005B0000F90CF91DF910895DF93CF93CDB7DEB742
:1005C0007894A5E5B0E0E5E5F0E08081807F8C934C
:1005D000A5E5B0E0E5E5F0E0808181608C93A5E5DC
:1005E000B0E0E5E5F0E0808184608C93A4E5B0E0C4
:1005F000E4E5F0E0808180648C93ABE5B0E0EBE56E
:10060000F0E0808180648C93ABE5B0E0EBE5F0E056
:10061000808180688C93ABE5B0E0EBE5F0E0808111
:1006200080628C93CF91DF910895DF93CF9300D0B8
:1006300000D0CDB7DEB78A837C836B8381E089836A
:100640008A818330D0F4EAE5F0E08081282F30E021
:100650008A81882F90E0FC01E05AFF4F8081882F2B
:1006600090E0A90102C0559547958A95E2F7CA0125
:100670008170EB81FC81808301C0198289810F9098
:100680000F900F900F90CF91DF910895DF93CF934C
:1006900000D0CDB7DEB78A8381E089838A81833039
:1006A000D0F4ABE5B0E0EBE5F0E08081482F8A8143
:1006B000882F90E0FC01ED59FF4F8081282F30E01A
:1006C00081E090E0022E02C0880F991F0A94E2F7A1
:1006D000842B8C9301C0198289810F900F90CF9148
:1006E000DF910895DF93CF9300D0CDB7DEB78A8333
:1006F00081E089838A818330D8F4ABE5B0E0EBE513
:10070000F0E08081482F8A81882F90E0FC01ED592C
:10071000FF4F8081282F30E081E090E0022E02C060
:10072000880F991F0A94E2F7809584238C9301C067
:10073000198289810F900F90CF91DF9108951F92B8
:100740000F920FB60F9211242F933F934F935F9305
:100750006F937F938F939F93AF93BF93EF93FF9389
:10076000DF93CF93CDB7DEB7E0919600F09197007D
:100770000995CF91DF91FF91EF91BF91AF919F913B
:100780008F917F916F915F914F913F912F910F903A
:100790000FBE0F901F9018951F920F920FB60F92D9
:1007A00011242F933F934F935F936F937F938F9376
:1007B0009F93AF93BF93EF93FF93DF93CF93CDB707
:1007C000DEB7E0919800F09199000995CF91DF9103
:1007D000FF91EF91BF91AF919F918F917F916F9119
:1007E0005F914F913F912F910F900FBE0F901F90EF
:1007F00018951F920F920FB60F9211242F933F93CB
:100800004F935F936F937F938F939F93AF93BF9318
:10081000EF93FF93DF93CF93CDB7DEB7E0919800CE
:10082000F09199000995CF91DF91FF91EF91BF91E0
:10083000AF919F918F917F916F915F914F913F9178
:100840002F910F900FBE0F901F901895DF93CF93AD
:10085000CDB7DEB780E060E00E94130181E060E088
:100860000E94130182E060E00E94130183E060E0D7
:100870000E9413018BE061E00E9413018CE061E0B3
:100880000E9413018DE061E00E9413018EE061E09F
:100890000E941301CF91DF910895DF93CF9300D091
:1008A00000D0CDB7DEB79C838B8319822EC089819F
:1008B000882F90E0FC01EE56FF4F808161E00E949E
:1008C000E5011A8212C08981882F90E0880F991F54
:1008D000880F991F982F8A81890F2B813C81B9013C
:1008E0000E94C1048A818F5F8A838A81843058F391
:1008F0008981882F90E0FC01EE56FF4F808160E0F7
:100900000E94E50189818F5F89838981843078F233
:10091000EB81FC818081918190931F0180931E0166
:100920000F900F900F900F90CF91DF910895DF936C
:10093000CF9300D000D0CDB7DEB78A837C836B83A2
:1009400081E089838A81803198F420911E01309161
:100950001F018A81882F90E0A90102C05695479512
:100960008A95E2F7CA018170EB81FC81808301C026
:10097000198289810F900F900F900F90CF91DF9186
:100980000895DF93CF93CDB7DEB72E970FB6F894C7
:10099000DEBF0FBECDBF8B837D836C8319828B81BD
:1009A000882F90E0FC01EA59FF4F80819E012E5F65
:1009B0003F4FB9010E946D028B81282F30E08FEFED
:1009C0009FEF022E02C0969587950A94E2F78170F8
:1009D0009070009741F48A811E86882311F421E0EB
:1009E0002E873E853A838B81882F90E0880F991F50
:1009F000FC01E456FF4F808191819D878C872C8577
:100A00003D852130310509F4F2C08C859D8581300A
:100A1000910538F02C853D852230310509F455C00B
:100A20003AC18A81282F30E03B872A878A859B85B7
:100A30000097E9F02A853B852130310509F043C054
:100A40008B81882F90E0880F991FFC01E456FF4F9F
:100A500082E090E09183808380911C0190911D0140
:100A6000EC81FD819183808381E0898315C18B8135
:100A7000882F90E0880F991FFC01E456FF4F1182E8
:100A800010828B81282F30E081E090E002C0880F37
:100A9000991F2A95E2F7809590959C0180911C0101
:100AA00090911D018223932390931D0180931C013B
:100AB00080911C0190911D01EC81FD8191838083C7
:100AC00081E08983E9C01982E7C08A81282F30E05C
:100AD0003987288788859985009709F447C0288534
:100AE00039852130310509F080C08B81882F90E055
:100AF0004096880F991FFC01E456FF4F1182108227
:100B00008B81282F30E0C9014096880F991FFC0186
:100B1000E456FF4F80819181AC014F5F5F4FC90167
:100B20004096880F991FFC01E456FF4F5183408384
:100B300081E089838B81882F90E04096880F991FF0
:100B4000FC01E456FF4F808191818130910509F0CD
:100B5000A3C08B81882F90E0880F991FFC01E45679
:100B6000FF4F81E090E09183808396C08B81282F96
:100B700030E0C9014096880F991FFC01E456FF4FF1
:100B800080819181AC014F5F5F4FC9014096880F12
:100B9000991FFC01E456FF4F518340838B81882FBE
:100BA00090E04096880F991FFC01E456FF4F118298
:100BB000108281E089838B81882F90E04096880F96
:100BC000991FFC01E456FF4F80819181813091058E
:100BD00009F062C08B81882F90E0880F991FFC017B
:100BE000E456FF4F1182108257C0198255C08A8186
:100BF000282F30E03F832E838E819F81009791F1D3
:100C00002E813F812130310509F043C08B81882F2F
:100C100090E0880F991FFC01E456FF4F81E090E0BF
:100C2000918380838B81282F30E081E090E002C0A7
:100C3000880F991F2A95E2F79C0180911C019091E1
:100C40001D01822B932B90931D0180931C01809199
:100C50001C0190911D01EC81FD819183808381E0D5
:100C600089831AC08B81882F90E0880F991FFC011F
:100C7000E456FF4F82E090E09183808380911C01D5
:100C800090911D01EC81FD819183808381E08983B6
:100C900003C0198201C0198289812E960FB6F8947B
:100CA000DEBF0FBECDBFCF91DF910895DF93CF930D
:100CB00000D000D0CDB7DEB783E160E00E94E5014F
:100CC000809120018F5F80932001809120018530E9
:100CD00019F583E161E00E94E50188E893E1A0E075
:100CE000B0E089839A83AB83BC830CC00000898108
:100CF0009A81AB81BC810197A109B10989839A834B
:100D0000AB83BC8389819A81AB81BC810097A105AB
:100D1000B10561F7109220010F900F900F900F9086
:100D2000CF91DF910895DF93CF9300D000D0CDB75E
:100D3000DEB780E160E00E94E501809121018F5FD4
:100D40008093210180912101853019F580E161E0D6
:100D50000E94E50188E893E1A0E0B0E089839A83EE
:100D6000AB83BC830CC0000089819A81AB81BC81BC
:100D70000197A109B10989839A83AB83BC838981D7
:100D80009A81AB81BC810097A105B10561F71092F2
:100D900021010F900F900F900F90CF91DF91089548
:100DA000DF93CF93CDB7DEB728970FB6F894DEBFA9
:100DB0000FBECDBF83E161E00E94130180E161E0DD
:100DC0000E94130186E061E00E9413018AE160E065
:100DD0000E9413018BE160E00E9413010E94DC027B
:100DE00086E596E00E94A60283E996E00E94B8029A
:100DF00086E061E00E94E50188E893E1A0E0B0E0D0
:100E00008D839E83AF83B8870CC000008D819E8147
:100E1000AF81B8850197A109B1098D839E83AF8306
:100E2000B8878D819E81AF81B8850097A105B105F6
:100E300061F786E060E00E94E50188E893E1A0E0C8
:100E4000B0E089839A83AB83BC830CC000008981A6
:100E50009A81AB81BC810197A109B10989839A83E9
:100E6000AB83BC8389819A81AB81BC810097A1054A
:0A0E7000B10561F7BDCFF894FFCF84
:100E7A000706050706050001020300010203000137
:100E8A000203000102033B003800350032003A0039
:100E9A0037003400310039003600330030000001D9
:060EAA0002030B0C0D0E0B
:00000001FF
